{
  "_format": "hh-sol-artifact-1",
  "contractName": "CrocSwapDex",
  "sourceName": "contracts/CrocSwapDex.sol",
  "abi": [
    {
      "inputs": [],
      "stateMutability": "nonpayable",
      "type": "constructor"
    },
    {
      "anonymous": false,
      "inputs": [
        {
          "indexed": true,
          "internalType": "bytes32",
          "name": "pool",
          "type": "bytes32"
        },
        {
          "indexed": true,
          "internalType": "int24",
          "name": "tick",
          "type": "int24"
        },
        {
          "indexed": false,
          "internalType": "bool",
          "name": "isBid",
          "type": "bool"
        },
        {
          "indexed": false,
          "internalType": "uint32",
          "name": "pivotTime",
          "type": "uint32"
        },
        {
          "indexed": false,
          "internalType": "uint64",
          "name": "feeMileage",
          "type": "uint64"
        },
        {
          "indexed": false,
          "internalType": "uint160",
          "name": "commitEntropy",
          "type": "uint160"
        }
      ],
      "name": "CrocKnockoutCross",
      "type": "event"
    },
    {
      "inputs": [],
      "name": "acceptCrocDex",
      "outputs": [
        {
          "internalType": "bool",
          "name": "",
          "type": "bool"
        }
      ],
      "stateMutability": "pure",
      "type": "function"
    },
    {
      "inputs": [
        {
          "internalType": "uint16",
          "name": "callpath",
          "type": "uint16"
        },
        {
          "internalType": "bytes",
          "name": "cmd",
          "type": "bytes"
        },
        {
          "internalType": "bool",
          "name": "sudo",
          "type": "bool"
        }
      ],
      "name": "protocolCmd",
      "outputs": [],
      "stateMutability": "payable",
      "type": "function"
    },
    {
      "inputs": [
        {
          "internalType": "uint256",
          "name": "slot",
          "type": "uint256"
        }
      ],
      "name": "readSlot",
      "outputs": [
        {
          "internalType": "uint256",
          "name": "data",
          "type": "uint256"
        }
      ],
      "stateMutability": "view",
      "type": "function"
    },
    {
      "inputs": [
        {
          "internalType": "address",
          "name": "base",
          "type": "address"
        },
        {
          "internalType": "address",
          "name": "quote",
          "type": "address"
        },
        {
          "internalType": "uint256",
          "name": "poolIdx",
          "type": "uint256"
        },
        {
          "internalType": "bool",
          "name": "isBuy",
          "type": "bool"
        },
        {
          "internalType": "bool",
          "name": "inBaseQty",
          "type": "bool"
        },
        {
          "internalType": "uint128",
          "name": "qty",
          "type": "uint128"
        },
        {
          "internalType": "uint16",
          "name": "tip",
          "type": "uint16"
        },
        {
          "internalType": "uint128",
          "name": "limitPrice",
          "type": "uint128"
        },
        {
          "internalType": "uint128",
          "name": "minOut",
          "type": "uint128"
        },
        {
          "internalType": "uint8",
          "name": "reserveFlags",
          "type": "uint8"
        }
      ],
      "name": "swap",
      "outputs": [
        {
          "internalType": "int128",
          "name": "baseQuote",
          "type": "int128"
        },
        {
          "internalType": "int128",
          "name": "quoteFlow",
          "type": "int128"
        }
      ],
      "stateMutability": "payable",
      "type": "function"
    },
    {
      "inputs": [
        {
          "internalType": "uint16",
          "name": "callpath",
          "type": "uint16"
        },
        {
          "internalType": "bytes",
          "name": "cmd",
          "type": "bytes"
        }
      ],
      "name": "userCmd",
      "outputs": [
        {
          "internalType": "bytes",
          "name": "",
          "type": "bytes"
        }
      ],
      "stateMutability": "payable",
      "type": "function"
    },
    {
      "inputs": [
        {
          "internalType": "uint16",
          "name": "callpath",
          "type": "uint16"
        },
        {
          "internalType": "bytes",
          "name": "cmd",
          "type": "bytes"
        },
        {
          "internalType": "bytes",
          "name": "conds",
          "type": "bytes"
        },
        {
          "internalType": "bytes",
          "name": "relayerTip",
          "type": "bytes"
        },
        {
          "internalType": "bytes",
          "name": "signature",
          "type": "bytes"
        }
      ],
      "name": "userCmdRelayer",
      "outputs": [
        {
          "internalType": "bytes",
          "name": "output",
          "type": "bytes"
        }
      ],
      "stateMutability": "payable",
      "type": "function"
    },
    {
      "inputs": [
        {
          "internalType": "uint16",
          "name": "callpath",
          "type": "uint16"
        },
        {
          "internalType": "bytes",
          "name": "cmd",
          "type": "bytes"
        },
        {
          "internalType": "address",
          "name": "client",
          "type": "address"
        }
      ],
      "name": "userCmdRouter",
      "outputs": [
        {
          "internalType": "bytes",
          "name": "",
          "type": "bytes"
        }
      ],
      "stateMutability": "payable",
      "type": "function"
    }
  ],
  "bytecode": "0x608060409080825234620001505762010011805460ff60e01b1916600160e71b179055632210724360e11b81523260048201526000906020816024818573ecf044c5b4b867cfda001101c617ecd347095b445af180156200014657620000fc575b506201000180546001600160a01b03199081163317909155815460ff60b01b1916600160b01b178255825190919061063a808201906001600160401b03821183831017620000e857908291620053588339039082f0908115620000dd575060018060a01b0316906001541617600155516152029081620001568239f35b8351903d90823e3d90fd5b634e487b7160e01b84526041600452602484fd5b60203d81116200013e575b601f8101601f191682016001600160401b03811183821017620000e85790602092918552810103126200013b573862000060565b80fd5b503d62000107565b83513d84823e3d90fd5b600080fdfe6080604052600436101561001257600080fd5b60003560e01c806302ce8af314610087578063087190701461008257806313fd34f41461007d5780633d719cd9146100785780637c5196251461007357806390b33ce51461006e5763a15112f91461006957600080fd5b610668565b610472565b610456565b6103b2565b6101f9565b61014a565b346100a55760206003193601126100a5576004355460805260206080f35b600080fd5b61ffff8116036100a557565b9181601f840112156100a55782359167ffffffffffffffff83116100a557602083818601950101116100a557565b60208082528251818301819052939260005b858110610136575050507fffffffffffffffffffffffffffffffffffffffffffffffffffffffffffffffe0601f8460006040809697860101520116010190565b8181018301518482016040015282016100f6565b60a06003193601126100a557600435610162816100aa565b67ffffffffffffffff6024358181116100a5576101839036906004016100b6565b926044358381116100a55761019c9036906004016100b6565b906064358581116100a5576101b59036906004016100b6565b9290916084359687116100a5576101eb976101d76101df9836906004016100b6565b979096610c75565b604051918291826100e4565b0390f35b801515036100a557565b60606003193601126100a557600435610211816100aa565b60243567ffffffffffffffff81116100a5576102319036906004016100b6565b906044359261023f846101ef565b73ffffffffffffffffffffffffffffffffffffffff8062010001541633149081610368575b50156100a5576102df9374ff000000000000000000000000000000000000000060005491151560a01b16907fffffffffffffffffffffff0000000000000000000000000000000000000000007fffffffffffffffffffffff00ffffffffffffffffffffffffffffffffffffffff331691161717600055610a3b565b61030c7fffffffffffffffffffffffff000000000000000000000000000000000000000060005416600055565b6103397fffffffffffffffffffffff00ffffffffffffffffffffffffffffffffffffffff60005416600055565b6103667fffffffffffffffffffff00ffffffffffffffffffffffffffffffffffffffffff60005416600055565b005b9050600054161538610264565b73ffffffffffffffffffffffffffffffffffffffff8116036100a557565b6001600160801b038116036100a557565b359060ff821682036100a557565b6101406003193601126100a5576004356103cb81610375565b602435906103d882610375565b6064356103e4816101ef565b6084356103f0816101ef565b60a4356103fc81610393565b60c43590610409826100aa565b60e4359261041684610393565b610104359461042486610393565b610124359660ff881688036100a5576104409860443591610735565b60408051600f93840b81529190920b6020820152f35b346100a55760006003193601126100a557602060405160018152f35b60606003193601126100a55760043561048a816100aa565b60243567ffffffffffffffff81116100a5576101eb916104b16105a79236906004016100b6565b916105a26044356104c181610375565b6105616040516020810173ffffffffffffffffffffffffffffffffffffffff91828516825233604082015261ffff871660608201526060815261050381610b46565b519020600052620100106020526040600020610527815463ffffffff9060a01c1690565b9063ffffffff808316908110610601575b50505061055a60005473ffffffffffffffffffffffffffffffffffffffff1690565b161561072e565b73ffffffffffffffffffffffffffffffffffffffff167fffffffffffffffffffffffff00000000000000000000000000000000000000006000541617600055565b6122f7565b6105d47fffffffffffffffffffffffff000000000000000000000000000000000000000060005416600055565b6101df7fffffffffffffffffffff00ffffffffffffffffffffffffffffffffffffffffff60005416600055565b6106609261061361061892151561072e565b6112e8565b7fffffffffffffffff00000000ffffffffffffffffffffffffffffffffffffffff77ffffffff000000000000000000000000000000000000000083549260a01b169116179055565b388080610538565b60406003193601126100a557600435610680816100aa565b60243567ffffffffffffffff81116100a5576106a09036906004016100b6565b90600092835473ffffffffffffffffffffffffffffffffffffffff811661072a577fffffffffffffffffffffffff000000000000000000000000000000000000000016331784556101eb93926106f79290916122f7565b907fffffffffffffffffffff00ff00000000000000000000000000000000000000008154169055604051918291826100e4565b8480fd5b156100a557565b9091959496999897929960009081549873ffffffffffffffffffffffffffffffffffffffff998a8116610a33577fffffffffffffffffffffffff000000000000000000000000000000000000000016331780845560b01c60ff1615610a375761079c611114565b506107a5611114565b506107ae611114565b50898516998416988a8a1015610a3357908d9695949392916040519960209a8b81019080610809858b8b8660409194939294606082019573ffffffffffffffffffffffffffffffffffffffff80921683521660208201520152565b037fffffffffffffffffffffffffffffffffffffffffffffffffffffffffffffffe0810182526108399082610bb6565b51902094858152620100098c5260409020946040519561085887610b25565b5460ff808216885261ffff600883901c81168f8a0152601883901c9091166040890152818e1c81166060890152939060ff603082901c16608089015260ff603882901c1660a089015260401c60ff1660c088019081525160ff166108bb91612121565b906108c4610bf7565b9687528c87015273ffffffffffffffffffffffffffffffffffffffff1660408601526108ef85612138565b6108f8906120bc565b8a85510191825161090a9061ffff1690565b61ffff1690821611610a26575b505087876109298383838a8a8a611f22565b61093294611016565b92835161093f90600f0b90565b998a9785019187835161095290600f0b90565b9e61095d9288610ee8565b508451600f0b9151600f0b6109739285856123eb565b61097c926121ae565b6040805191151582529115156020820152600f92830b918101919091529086900b60608201527f92149e4de4ae0e527208be42e2728d209cf51d6dbf60be74d869219743e0b1e190608090a391906109f77fffffffffffffffffffffffff000000000000000000000000000000000000000060005416600055565b610a247fffffffffffffffffffff00ffffffffffffffffffffffffffffffffffffffffff60005416600055565b565b61ffff1690523880610917565b8380fd5b8280fd5b610a448161236c565b62010000811015610af157610aee92600092610ab0610adc73ffffffffffffffffffffffffffffffffffffffff869560010154169360405192839160208301957fb670198000000000000000000000000000000000000000000000000000000000875260248401612281565b037fffffffffffffffffffffffffffffffffffffffffffffffffffffffffffffffe08101835282610bb6565b51915af4610ae86122c7565b906123d5565b50565b612252565b7f4e487b7100000000000000000000000000000000000000000000000000000000600052604160045260246000fd5b60e0810190811067ffffffffffffffff821117610b4157604052565b610af6565b6080810190811067ffffffffffffffff821117610b4157604052565b60a0810190811067ffffffffffffffff821117610b4157604052565b6060810190811067ffffffffffffffff821117610b4157604052565b60c0810190811067ffffffffffffffff821117610b4157604052565b90601f7fffffffffffffffffffffffffffffffffffffffffffffffffffffffffffffffe0910116810190811067ffffffffffffffff821117610b4157604052565b60405190610a2482610b7e565b67ffffffffffffffff8111610b4157601f017fffffffffffffffffffffffffffffffffffffffffffffffffffffffffffffffe01660200190565b929192610c4a82610c04565b91610c586040519384610bb6565b8294818452818301116100a5578281602093846000960137010152565b9297909396919495966040805193610c8c85610b46565b61ffff86168552610cb2610ca1368a8a610c3e565b9b6020948588019d8e523691610c3e565b94828101958652610cc4368c8c610c3e565b9b8c606083015273ffffffffffffffffffffffffffffffffffffffff9c8d9660009e8f5416610e5e578460609181010312610e5a57928d9492610df492879561ffff610d0f856103a4565b9351169151878151910120908b518881519101209088815191012090875192898401947fb7268d49bb01bc5e690da8069036b0caa17476a23af017f9840ccc0fc5ca01b78652898501526060840152608083015260a082015260a08152610d7581610b9a565b519020610ab0610dc7610d86611252565b9287519283918a8301958690916042927f19010000000000000000000000000000000000000000000000000000000000008352600283015260228201520190565b519020845190815260ff909116602082015293810135604085015290910135606083015281906080820190565b838052039060015afa15610e5557610561610e2292610e1b610e279a51938416151561072e565b518261118a565b610e62565b906109f77fffffffffffffffffffffffff000000000000000000000000000000000000000060005416600055565b611246565b8d80fd5b8e80fd5b610e7f92610a249492610e77929796976122f7565b943691610c3e565b611488565b7f4e487b7100000000000000000000000000000000000000000000000000000000600052601160045260246000fd5b600f0b7fffffffffffffffffffffffffffffffff800000000000000000000000000000008114610ee35760000390565b610e84565b9293929091908415610fbc5760200151600f0b905b8194151590151514600014610faa57610f216001600160801b038316600f0b610eb3565b600f0b90600f0b1390811591610f98575b5015610f3a57565b60646040517f08c379a000000000000000000000000000000000000000000000000000000000815260206004820152600260248201527f534c0000000000000000000000000000000000000000000000000000000000006044820152fd5b6001600160801b039150161538610f32565b6001600160801b038216600f0b610f21565b51600f0b90610efd565b60405190610fd382610b46565b60006060838281528260208201528260408201520152565b60405190610ff882610b62565b60006080838281528260208201528260408201528260608201520152565b93919261111193611025610fc6565b5061102e610feb565b9215158352151560208301526001600160801b03928380921660608401521660808201526000604082015261110b611064610fc6565b9460208101928351611074610feb565b506000526201000f6020526111046040600020956110e160016040519861109a8a610b62565b80548481168b5260801c60208b0152015482811660408a01526110d767ffffffffffffffff8260801c1660608b019067ffffffffffffffff169052565b60c01c6080890152565b6110ff6110f588516001600160801b031690565b918216151561072e565b61170d565b8588612aa9565b51611dd4565b90565b604051906060820182811067ffffffffffffffff821117610b41578060405260408361113f83610b25565b6000928381528360808301528360a08301528360c08301528360e0830152836101008301528361012083015281528260208201520152565b519065ffffffffffff821682036100a557565b60a0828051810103126100a5576111a360208301611177565b6111af60408401611177565b9160608401519160808501519363ffffffff851685036100a55761121661122d9273ffffffffffffffffffffffffffffffffffffffff60a0610a249901516111f681610375565b169261120d65ffffffffffff80931642111561072e565b1642101561072e565b801590811561123c575b8115611232575b5061072e565b6112fb565b9050321438611227565b3381149150611220565b6040513d6000823e3d90fd5b60405160208101907f8b73c3c69bb8fe3d512ecc4cf759cc79239f7b179b0ffacaa9a75d522b39400f82527f33dd648f3c5d475752f4dfbf3ab10305e18604abf30961145f1889ec2e86756360408201527fe6bbd6277e1bf288eed5e8d1780f9a50b239e86b153736bceebccf4ea79d90b360608201524660808201523060a082015260a081526112e281610b9a565b51902090565b63ffffffff168015610ee3576000190190565b906040519073ffffffffffffffffffffffffffffffffffffffff602083019316835260408201526040815261132f81610b7e565b5190206000526201001060205260406000209081549063ffffffff80808460801c16921682036100a5578114610ee35773ffffffff0000000000000000000000000000000060017fffffffffffffffffffffffff00000000ffffffffffffffffffffffffffffffff920160801b169116179055565b908160609103126100a55780516113ba81610375565b91604060208301516113cb81610393565b92015161111181610375565b9190916001600160801b0380809416911602918216918203610ee357565b7f4e487b7100000000000000000000000000000000000000000000000000000000600052601260045260246000fd5b906001600160801b03809216600003918211610ee357565b6001600160801b039182169082160391908211610ee357565b9060016001600160801b0380931601918211610ee357565b9190916001600160801b0380809416911601918211610ee357565b8051908115611669576020806114a29383010191016113a4565b9073ffffffffffffffffffffffffffffffffffffffff809316926114c88183941661166d565b906114e2856114dc816000549485166116d7565b936116d7565b906001600160801b038080951614611636575b6115e383926115d161156461154d60ff61159f966115438c8c8061153861152b6115fa9f60005262010010602052604060002090565b546001600160801b031690565b92169116101561072e565b60c01c168a6113d7565b60081c6effffffffffffffffffffffffffffff1690565b9761159f6115886115758b8461143c565b9760005262010010602052604060002090565b9161159a83546001600160801b031690565b61143c565b6001600160801b03167fffffffffffffffffffffffffffffffff00000000000000000000000000000000825416179055565b60005262010010602052604060002090565b916115f583546001600160801b031690565b61146d565b8116611604575050565b61159f6115e3610a249373ffffffffffffffffffffffffffffffffffffffff166000526201000c602052604060002090565b919350828085926116538460005262010010602052604060002090565b546001600160801b0316965092939150506114f5565b5050565b73ffffffffffffffffffffffffffffffffffffffff811661010081036116935750503390565b6102001461169e5790565b503290565b60405173ffffffffffffffffffffffffffffffffffffffff602082019216825260006040820152604081526112e281610b7e565b60405190602082019273ffffffffffffffffffffffffffffffffffffffff8092168452166040820152604081526112e281610b7e565b6001600160801b0377ffffffffffffffffffffffffffffffff00000000000000008183169262010002841015806119f1575b6117489061072e565b60401b168091811160071b9181831c9267ffffffffffffffff841160061b93841c9363ffffffff851160051b94851c9461ffff861160041b95861c60ff9687821160031b91821c92600f841160021b93841c94600160038711811b96871c1196171717171717179160808310156000146119e557507fffffffffffffffffffffffffffffffffffffffffffffffffffffffffffffff8182011c5b8002607f928392828493841c81841c1c800280851c81851c1c800280861c81861c1c800280871c81871c1c80029081881c82881c1c80029283891c84891c1c800294858a1c868a1c1c800296878b1c888b1c1c800298898c1c8a8c1c1c80029a8b8d1c8c821c1c8002809d1c8d821c1c8002809e81901c90821c1c80029e8f80911c911c1c800260cd1c6604000000000000169d60cc1c6608000000000000169c60cb1c6610000000000000169b60ca1c6620000000000000169a60c91c6640000000000000169960c81c6680000000000000169860c71c670100000000000000169760c61c670200000000000000169660c51c670400000000000000169560c41c670800000000000000169460c31c671000000000000000169360c21c672000000000000000169260c11c674000000000000000169160c01c67800000000000000016907fffffffffffffffffffffffffffffffffffffffffffffffffffffffffffffff800160401b1717171717171717171717171717693627a301d71055774c85027ffffffffffffffffffffffffffffffffffd709b7e5480fba5a50fed5e62ffc556810160801d60020b906fdb2df09e81959a81455e260799a0632f0160801d60020b916000908383146000146119bd575050905090565b6119d56119c985611a1c565b6001600160801b031690565b1190506119e0575090565b905090565b905081607f031b6117e2565b506f0ffff5433e2b3d8211706e6102aa9472841061173f565b8015611a17576000190490565b6113f5565b6001600160801b039060020b7ffffffffffffffffffffffffffffffffffffffffffffffffffffffffffff5d89281121580611dc7575b611a5b9061072e565b6000811215611dc15780600003905b6001821615611d985770ffffffffffffffffffffffffffffffffff6ffffcb933bd6fad37aa2d162d1a5940015b169160028116611d7c575b60048116611d60575b60088116611d44575b60108116611d28575b60208116611d0c575b60408116611cf0575b608090818116611cd5575b6101008116611cba575b6102008116611c9f575b6104008116611c84575b6108008116611c69575b6110008116611c4e575b6120008116611c33575b6140008116611c18575b6180008116611bfd575b620100008116611be2575b620200008116611bc8575b620400008116611bae575b6208000016611b93575b50600012611b85575b67ffffffffffffffff8116611b7c5760ff60005b169060401c011690565b60ff6001611b72565b611b8e90611a0a565b611b5e565b6b048a170391f7dc42444e8fa26000929302901c9190611b55565b6d2216e584f5fa1ea926041bedfe98909302811c92611b4b565b926e5d6af8dedb81196699c329225ee60402811c92611b40565b926f09aa508b5b7a84e1c677de54f3e99bc902811c92611b35565b926f31be135f97d08fd981231505542fcfa602811c92611b2a565b926f70d869a156d2a1b890bb3df62baf32f702811c92611b20565b926fa9f746462d870fdf8a65dc1f90e061e502811c92611b16565b926fd097f3bdfd2022b8845ad8f792aa582502811c92611b0c565b926fe7159475a2c29b7443b29c7fa6e889d902811c92611b02565b926ff3392b0822b70005940c7a398e4b70f302811c92611af8565b926ff987a7253ac413176f2b074cf7815e5402811c92611aee565b926ffcbe86c7900a88aedcffc83b479aa3a402811c92611ae4565b926ffe5dee046a99a2a811c461f1969c305302811c92611ada565b916fff2ea16466c96a3843ec78b326b528610260801c91611acf565b916fff973b41fa98c081472e6896dfb254c00260801c91611ac6565b916fffcb9843d60f6159c9db58835c9266440260801c91611abd565b916fffe5caca7e10e4e61c3624eaa0941cd00260801c91611ab4565b916ffff2e50f5f656932ef12357cf3c7fdcc0260801c91611aab565b916ffff97272373d413259a46990580e213a0260801c91611aa2565b70ffffffffffffffffffffffffffffffffff700100000000000000000000000000000000611a97565b80611a6a565b50620cb14a811315611a52565b90610a24916000526201000f60205267ffffffffffffffff6080604060002092611eab60016001600160801b0395611e3d8785511682906001600160801b03167fffffffffffffffffffffffffffffffff00000000000000000000000000000000825416179055565b6020840151877fffffffffffffffffffffffffffffffff00000000000000000000000000000000835492881b169116178155019460408301511685906001600160801b03167fffffffffffffffffffffffffffffffff00000000000000000000000000000000825416179055565b60608101518454918301516001600160801b03909216921b77ffffffffffffffff000000000000000000000000000000001691909117911660c01b7fffffffffffffffff00000000000000000000000000000000000000000000000016179055565b908160209103126100a55751611111816100aa565b93949290919273ffffffffffffffffffffffffffffffffffffffff958660408701511680611f55575b5050505050505050565b6020956001600160801b038894600094610104978c61ffff8c828a54169a51015116956040519e8f9c8d9b7f4e56bd38000000000000000000000000000000000000000000000000000000008d5260048d01523360248d01521660448b015216606489015215156084880152151560a48701521660c485015260e48401525af1908115610e5557611fee92600092611ffb575b5061202b565b3880808080808080611f4b565b61201d91925060203d8111612024575b6120158183610bb6565b810190611f0d565b9038611fe8565b503d61200b565b9061ffff809116801561205e576000190191818311610ee3575160200180519092821690821603818111610ee357169052565b60646040517f08c379a000000000000000000000000000000000000000000000000000000000815260206004820152600160248201527f5a000000000000000000000000000000000000000000000000000000000000006044820152fd5b156120c357565b60646040517f08c379a000000000000000000000000000000000000000000000000000000000815260206004820152600260248201527f50490000000000000000000000000000000000000000000000000000000000006044820152fd5b9060018060009216146000146119e0575060601c90565b600160ff825151161161215057515160ff1660011490565b60646040517f08c379a000000000000000000000000000000000000000000000000000000000815260206004820152600360248201527f49505300000000000000000000000000000000000000000000000000000000006044820152fd5b9060606001600160801b039283928360408301511680612215575b505001511691826121d957505050565b610a249261220c61159f9273ffffffffffffffffffffffffffffffffffffffff166000526201000c602052604060002090565b9283541661146d565b73ffffffffffffffffffffffffffffffffffffffff61224b92166000526201000c60205261159f6040600020918683541661146d565b38806121c9565b7f4e487b7100000000000000000000000000000000000000000000000000000000600052603260045260246000fd5b90601f836040947fffffffffffffffffffffffffffffffffffffffffffffffffffffffffffffffe093602086528160208701528686013760008582860101520116010190565b3d156122f2573d906122d882610c04565b916122e66040519384610bb6565b82523d6000602084013e565b606090565b6123008161236c565b62010000811015610af15761111192600092610ab0610adc73ffffffffffffffffffffffffffffffffffffffff869560010154169360405192839160208301957ff96dc78800000000000000000000000000000000000000000000000000000000875260248401612281565b62010000811015610af15773ffffffffffffffffffffffffffffffffffffffff816001015416156100a55760ff60005460b81c16159081156123c5575b81156123b8575b50156100a557565b61ffff91501615386123b0565b61ffff811661270f1491506123a9565b156123dd5790565b80519081156100a557602001fd5b92909173ffffffffffffffffffffffffffffffffffffffff9384600054169481161560001461250657506000549460ff8660a81c166124a857610a249560029275010000000000000000000000000000000000000000007fffffffffffffffffffff00ffffffffffffffffffffffffffffffffffffffffff61246c3461251f565b931617600055600f81900b156124985761248e91600184161515918880612660565b1615159280612533565b506124a390866129ed565b61248e565b60646040517f08c379a000000000000000000000000000000000000000000000000000000000815260206004820152600260248201527f44530000000000000000000000000000000000000000000000000000000000006044820152fd5b946124a3600292610a2497600184161515918880612533565b906001600160801b0382169182036100a557565b9093929173ffffffffffffffffffffffffffffffffffffffff808416156100a55781600f0b60008113600014612579575050610a2494506001600160801b03169061279c565b60009193509493941261258e575b5050505050565b61259790610eb3565b91156125bc5750916125b2926001600160801b031690612a14565b3880808080612587565b9161262c93600080946001600160801b0382956040519260208401957fa9059cbb0000000000000000000000000000000000000000000000000000000087521660248401521660448201526044815261261481610b46565b51925af16126206122c7565b81612631575b50612853565b6125b2565b8051801592508215612646575b505038612626565b612659925060208091830101910161283e565b388061263e565b9360009291600f83900b8481131561271e5750506001600160801b039182169060001461271257604083612693876116a3565b81526201001060205220908154838116908282116000146126db5750509061159f6126c1928483541661143c565b8116156126d157610a24926128b8565b50610a24916129ed565b7fffffffffffffffffffffffffffffffff000000000000000000000000000000001690925591925061270c9161143c565b906126c1565b915050610a24926128b8565b84965093909392919212612733575050505050565b61273c90610eb3565b6001600160801b0394908516911561277d579361159f6127789260406125b297612765876116a3565b815262010010602052209283541661146d565b6129ed565b80939261262c956127908395849561146d565b16905af16126266122c7565b9215612835576000906127af83856116d7565b8252620100106020526040822080546001600160801b039290838116908483168211156127fe5750509061159f6127e9928483541661143c565b8116156127f957610a249261293e565b505050565b7fffffffffffffffffffffffffffffffff000000000000000000000000000000001690925591925061282f9161143c565b906127e9565b610a249261293e565b908160209103126100a55751611111816101ef565b1561285a57565b60646040517f08c379a000000000000000000000000000000000000000000000000000000000815260206004820152600260248201527f54460000000000000000000000000000000000000000000000000000000000006044820152fd5b90916001600160801b03808416908216106128e057610a24926128da9161143c565b906129ed565b60646040517f08c379a000000000000000000000000000000000000000000000000000000000815260206004820152600260248201527f45430000000000000000000000000000000000000000000000000000000000006044820152fd5b909173ffffffffffffffffffffffffffffffffffffffff811661297657506001600160801b0382166128e0576128da610a2492611424565b6040517f23b872dd000000000000000000000000000000000000000000000000000000006020820190815273ffffffffffffffffffffffffffffffffffffffff90931660248201523060448201526001600160801b039093166064840152610a249260009283929183906126148160848101610ab0565b906001600160801b031680612a00575050565b600080808093610a24955af16126266122c7565b610a2492612a21916116d7565b6000526201001060205261159f6040600020916001600160801b0383541661146d565b15612a4b57565b60646040517f08c379a000000000000000000000000000000000000000000000000000000000815260206004820152600260248201527f53440000000000000000000000000000000000000000000000000000000000006044820152fd5b835191929115612c0c57612aef612ac784516001600160801b031690565b6001600160801b03612ae66119c960808901516001600160801b031690565b91161115612a44565b612b036110ff84516001600160801b031690565b9360015b612b42575050506110ff612b2291516001600160801b031690565b908160020b8160020b03612b3557505050565b6020610a24930151613be1565b6020860184612b5d858351612b578651151590565b90613d9d565b9190928392612b70858c51888a87612c48565b612b7a8684614ad3565b94859182612b8e575b505050505050612b07565b612bbb575b50612ba1575b838180612b83565b612bb2939650908491519286614b27565b92388581612b99565b935050612bd4815184612bce8851151590565b91614256565b9260029084820b910b03612bea575b8338612b93565b925050612bfb81895185878a612c48565b85612c068482614ad3565b92612be3565b612aef612c2084516001600160801b031690565b6001600160801b03612c3f6119c960808901516001600160801b031690565b91161015612a44565b9093916001600160801b0392836080830151168251151590612c699261353a565b906060810193808551169581602084019781895115159381898680602085015161ffff16946040015160ff16968c858551168682161192612caa9286612fbd565b84612cb485613015565b945116612cc094613b03565b1602620f4240900491820260081c1693849116031691612ce1828488613637565b612cea92613b85565b908751612cf690151590565b92612d01938a612d78565b845115159051151584516001600160801b031691612d1e94612e77565b6001600160801b03169092529091511515610a249392612d3f919284612e4b565b15612d5e576060016001600160801b039081815116918211610ee35752565b6040016001600160801b039081815116918211610ee35752565b92612d84919284612e4b565b15612da75760600190612da26001600160801b03918284511661146d565b169052565b60400190612da26001600160801b03918284511661146d565b600f0b600401906f7fffffffffffffffffffffffffffffff82137fffffffffffffffffffffffffffffffff80000000000000000000000000000000831217610ee357565b90600f0b90600f0b01907fffffffffffffffffffffffffffffffff8000000000000000000000000000000082126f7fffffffffffffffffffffffffffffff831317610ee357565b602090612e5f612e70938251600f0b612e04565b600f0b815201918251600f0b612e04565b600f0b9052565b939290949194612e8984828488612fbd565b6001600160801b03908382168183161015612ebe575050908495612eb19285610a24976131b2565b80959295949195966134af565b82612f108884999894968b612f08818a99612f1798612edc87613015565b968c612eee8585858c858751166132b1565b98899185612fb157612f0293511690613086565b906133e4565b949094612dc0565b948b613218565b949197909685979899600014612fa6575116911611915b82612f9b575b505015612f3d57565b60646040517f08c379a000000000000000000000000000000000000000000000000000000000815260206004820152600260248201527f52460000000000000000000000000000000000000000000000000000000000006044820152fd5b161590503880612f34565b511691161091612f2e565b612f02935116906130be565b91929092612fca83613015565b9015612ffc576001600160801b03612fe493511690613086565b6001600160801b0382811690821611156119e0575090565b6001600160801b03613010935116906130be565b612fe4565b6001600160801b03808060406130408260208701511667ffffffffffffffff60608801511690613052565b94015116830116911681106100a55790565b67ffffffffffffffff916001600160801b039283911666010000000000000191160260301c818111613082571690565b5090565b9091611111926001600160801b038281939282809416838216116000146130b65703165b1691160260401c61251f565b9003166130aa565b916001600160801b0382811690821611156130dc5761111192613111565b9061111192613111565b9062093a8091828102928184041490151715610ee357565b81810292918115918404141715610ee357565b909177ffffffffffffffffffffffffffffffffffffffffffffffff6131436131559261313d818761143c565b94613427565b166001600160801b03809316906130fe565b91168015611a1757611111910461251f565b9061111192600014613189576001600160801b0380911691160260401c61251f565b6131ac9077ffffffffffffffffffffffffffffffffffffffffffffffff92613427565b1661251f565b929361320c94613200936132066131f983836131cd8a613015565b6131ed896001600160801b038d51166131e7828286613086565b936130be565b821561321357906133e4565b9690612dc0565b95612dc0565b95613218565b9192909190565b6133e4565b929161322a9097949691978887613277565b6001600160801b039290838216848216106132685750506000945b871561326257805b971561325b57505b94169052565b9050613255565b8161324d565b6132719161143c565b94613245565b911515901515146000146132a3575b600081600f0b1261329d576001600160801b031690565b50600090565b6132ac90610eb3565b613286565b939215613308576132c193613316565b6001600160801b0381166f0ffff5433e2b3d8211706e6102aa94728110156132f257620100028091106119e0575090565b50506f0ffff5433e2b3d8211706e6102aa947190565b61331193613398565b6132c1565b91906001600160801b039182821615613390579061333391613427565b8177ffffffffffffffffffffffffffffffffffffffffffffffff82161161338957811692156133675750906111119161146d565b81168210156133825761337c61111192611455565b9061143c565b5050600090565b5091505090565b505091505090565b906133a76133af949392613459565b921592613316565b6001600160801b038116156133cf576133ca61111191613459565b611455565b506f0ffff5433e2b3d8211706e6102aa947290565b9190921515901515146000146134125761340961340361340e92613488565b92613488565b610eb3565b9091565b61342161340961340e92613488565b91613488565b906001600160801b0316908115611a175760401b77ffffffffffffffffffffffffffffffff0000000000000000160490565b6001600160801b038091168015611a1757700100000000000000000000000000000000048181116100a5571690565b6001600160801b03166f800000000000000000000000000000008110156100a557600f0b90565b516001600160801b039283169083161491908261352e575b5050156134d057565b60646040517f08c379a000000000000000000000000000000000000000000000000000000000815260206004820152600260248201527f52500000000000000000000000000000000000000000000000000000000000006044820152fd5b161515905038806134c7565b906135459291613590565b6001600160801b0381166201000280821061358a57506f0ffff5433e2b3d8211706e6102aa947211156135755790565b506f0ffff5433e2b3d8211706e6102aa947190565b91505090565b90918160020b7ffffffffffffffffffffffffffffffffffffffffffffffffffffffffffff5d892811390811591613629575b50156135cd57505090565b15613607576135de6135ee91611a1c565b600019016001600160801b031690565b906001600160801b0380821690831610156119e0575090565b61361090611a1c565b906001600160801b0380821690831611156119e0575090565b620cb14a91501215386135c2565b909161364282613015565b926001600160801b039182851615612587571593613664858486511683613a97565b60011b917001fffffffffffffffffffffffffffffffe6ffffffffffffffffffffffffffffffffe841693168303610ee35785846136c2948082851611156000146137f75750506136bd91506000925b8587511690613167565b613803565b9067ffffffffffffffff938483166136db575050505050565b6136e99083838651166139ec565b16825260608201836136fe838284511661399e565b16809152660100000000000001908115611a17576125b2936137ea926dffffffffffffffff00000000000060209360301b160416926137d76137aa6137a361379e6137878861375760408801516001600160801b031690565b6001600160801b0367ffffffffffffffff71ffffffffffffffffffffffffffffffffffff931691160260301c1690565b71ffffffffffffffffffffffffffffffffffff1690565b61251f565b8096613a51565b6137c960808401916137c4835167ffffffffffffffff1690565b613982565b67ffffffffffffffff169052565b01916115f583516001600160801b031690565b6001600160801b03169052565b6136bd930316926136b3565b6001600160801b0380821680159182156138cd575b50506133825761382b613830928261146d565b6138d9565b9067ffffffffffffffff80831692660100000000000093848110156100a55780677fffffffffffffff910260331c9160011c1603169182101561386f57565b60646040517f08c379a000000000000000000000000000000000000000000000000000000000815260206004820152600260248201527f49460000000000000000000000000000000000000000000000000000000000006044820152fd5b84161190503880613818565b906001600160801b039081831679ffffffffffffffffffffffffffffffffffffffffffffffffffff81109081613975575b50156100a557168015611a175766010000000000009160301b75ffffffffffffffffffffffffffffffff00000000000016047fffffffffffffffffffffffffffffffffffffffffffffffffffff00000000000001818110156130825767ffffffffffffffff91501690565b905082821611153861390a565b91909167ffffffffffffffff80809416911601918211610ee357565b7fffffffffffffffffffffffffffffffffffffffffffffffffffff0000000000009067ffffffffffffffff9283806601000000000000921682019216010260301c0181811015613082571690565b919067ffffffffffffffff1666010000000000000190600014613a2257611111916001600160801b03160260301c60010161251f565b8015611a175775ffffffffffffffffffffffffffffffff0000000000006001600160801b039260301b16041690565b906001600160801b038082168015613a8e57613a7b613a819167ffffffffffffffff8096166130fe565b92611455565b16908115611a1757041690565b50505050600090565b9115613aba575060401c67ffffffffffffffff166001016001600160801b031690565b77ffffffffffffffffffffffffffffffffffffffffffffffff61111192613afa83613af46001600160801b03600019600197011684613427565b92613427565b9003160161251f565b9291936001600160801b0394858516938415613b795786613b35848295159683613b2e89838d613167565b1699613167565b16931590151514600014613b70571601905b8115613b6a57611111935080020481811115613b63570361251f565b900361251f565b50505090565b16900390613b47565b50505050505050600090565b60009391929083016001600160801b031690849015613bac5750613ba890613488565b9190565b929350613bb890613488565b9290565b91908203918211610ee357565b8054821015610af15760005260206000200190600090565b909291600091808352620100189485602052604092613c0f828587209060020b600052602052604060002090565b549363ffffffff94613c3a864216948689528a6020528389209060020b600052602052604060002090565b906000198101908111610ee357613c558591613c8f93613bc9565b50907fffffffffffffffffffffffffffffffffffffffffffffffff00000000ffffffff67ffffffff0000000083549260201b169116179055565b8051978189019389851067ffffffffffffffff861117610b4157613cd294835289526020890194878652875260205285209060020b600052602052604060002090565b805468010000000000000000811015610b4157613cf491600182018155613bc9565b939093613d715750613d3882610a2495965116849063ffffffff167fffffffffffffffffffffffffffffffffffffffffffffffffffffffff00000000825416179055565b5182547fffffffffffffffffffffffffffffffffffffffffffffffff00000000ffffffff16911660201b67ffffffff0000000016179055565b807f4e487b71000000000000000000000000000000000000000000000000000000006024925280600452fd5b9160020b918260081d918260010b91604051613dd081610ab0866020830195869091602292825260f01b60208201520190565b51902093600094855262010007602052613e188261ffff604088205493828981600014613e925750613e0f60ff91826101008160015b16950716613ea3565b16011683613eb5565b90918315613e505750945b508415613e385750613e359250614171565b91565b905060ff91501660020b9060081b60020b0160020b91565b868115159182613e82575b5081613e76575b5015613e715750845b94613e23565b613e6b565b60ff9150161538613e62565b613e8c9150613fea565b38613e5b565b60ff918261010081613e0f94613e06565b9015613eac5790565b60ff9081031690565b6000939161ffff908415613fde571690811c901b915b82159283159182613edb57505050565b929450909160009015613ef35750613e359150613fea565b90613eff81929361072e565b700100000000000000000000000000000000811015613fcf575b5080680100000000000000006002921015613fc0575b640100000000811015613fb1575b62010000811015613fa2575b610100811015613f93575b6010811015613f84575b6004811015613f76575b10613e355760010160ff1691565b91810160ff1691811c613f68565b600492830160ff16921c613f5e565b600892830160ff16921c613f54565b601092830160ff16921c613f49565b602092830160ff16921c613f3d565b604092830160ff16921c613f2f565b60809250821c90506002613f19565b1690811b901c91613ecb565b90613ff682151561072e565b60ff6001600160801b038316156141675750607f5b67ffffffffffffffff83161561415d577fffffffffffffffffffffffffffffffffffffffffffffffffffffffffffffffc00160ff165b63ffffffff831615614153577fffffffffffffffffffffffffffffffffffffffffffffffffffffffffffffffe00160ff165b61ffff831615614149577ffffffffffffffffffffffffffffffffffffffffffffffffffffffffffffffff00160ff165b60ff83161561413f577ffffffffffffffffffffffffffffffffffffffffffffffffffffffffffffffff80160ff165b600f831615614135576003190160ff165b60038316156141295760ff7ffffffffffffffffffffffffffffffffffffffffffffffffffffffffffffffffe6001920116925b1661411d57565b9060001960ff91011690565b9160019060021c614116565b9160041c916140e3565b9160081c916140d2565b9160101c916140a3565b9160201c91614073565b9160401c91614041565b9160801c9161400b565b90811561421b5781156141f457617fff905b60010b60009160010b81146000146141a057505061111190614226565b600101917fffffffffffffffffffffffffffffffffffffffffffffffffffffffffffff80008312617fff841317610ee3576141ec575060ff805b1660020b9060081b60020b0160020b90565b60ff906141da565b7fffffffffffffffffffffffffffffffffffffffffffffffffffffffffffff800090614183565b905060081b60020b90565b1561423257627fffff90565b7fffffffffffffffffffffffffffffffffffffffffffffffffffffffffff80000090565b9190818061437b575b61437157811580614345575b61431e5781156142e3575b60020b60ff610100816080601085901d600081810b9081126142d9575082160116925b60081d60010b07166142ad838284876145d0565b156142d15750826142bf9183866149bb565b93909315613b6a576111119350614a2d565b935050505090565b9050011692614299565b60020b600019017fffffffffffffffffffffffffffffffffffffffffffffffffffffffffff8000008112627fffff8213171561427657610e84565b5050507fffffffffffffffffffffffffffffffffffffffffffffffffffffffffff80000090565b507fffffffffffffffffffffffffffffffffffffffffffffffffffffffffff8000008160020b1461426b565b505050627fffff90565b50627fffff8160020b1461425f565b906143949061478e565b906040516143cb81610ab0602082019460ff881660010b8760081b60010b0160010b90869091602292825260f01b60208201520190565b519020600052620100076020526040600020546000908015908115614422575b506144175760ff61ff00911660020b9260081b1660020b9060101b60020b0160020b0160020b90600090565b505050600090600190565b61442d919250613fea565b90386143eb565b9291906144409061478e565b604051602081019061447881610ab060ff9889881660010b8760081b60010b0160010b90869091602292825260f01b60208201520190565b519020936000948552620100076020526040852054859080159083821591826144d0575b5050506144c7579061ff00911660020b9260081b1660020b9060101b60020b0160020b0160020b9190565b50505050600190565b809192939450906144e18a9461072e565b7001000000000000000000000000000000008110156145bd575b5080826801000000000000000060029310156145af575b6401000000008210156145a1575b62010000821015614593575b610100821015614585575b6010821015614577575b6004821015614568575b50101561455d575b509038838161449c565b906001011682614553565b908290811c940116928261454b565b600494850116931c82614541565b600894850116931c82614537565b601094850116931c8261452c565b602094850116931c82614520565b604094850116931c82614512565b9250505060801c826002608092906144fb565b906145dd9094939461478e565b90604051602081019061461681610ab060ff9586891660010b8860081b60010b0160010b90869091602292825260f01b60208201520190565b519020600090815262010007602052604081205490958691811561478857905b811591848315928361466f575b505050506144c7579061ff00911660020b9260081b1660020b9060101b60020b0160020b0160020b9190565b90919293945060001461469157506146879150613fea565b9038808481614643565b908061469d8a9461072e565b700100000000000000000000000000000000811015614775575b508082680100000000000000006002931015614767575b640100000000821015614759575b6201000082101561474b575b61010082101561473d575b601082101561472f575b6004821015614720575b501015614715575b50614687565b90600101168261470f565b908290811c9401169282614707565b600494850116931c826146fd565b600894850116931c826146f3565b601094850116931c826146e8565b602094850116931c826146dc565b604094850116931c826146ce565b9250505060801c826002608092906146b7565b90614636565b60ff8116600091608082106000146147ce57507fffffffffffffffffffffffffffffffffffffffffffffffffffffffffffffff80915060010b0160000b90565b60ff91507fffffffffffffffffffffffffffffffffffffffffffffffffffffffffffffff800116900b90565b906148048161478e565b604051602081019184835260f81b60408201526021815261482481610b7e565b51902060005262010006602052604060002054906000918015908115614853575b506144175761340e9261438a565b61485e919350613fea565b9138614845565b9061486f8161478e565b604051602081019184835260f81b60408201526021815261488f81610b7e565b5190206000526201000660205260406000205490600091801590811590816148c1575b50506144175761340e92614434565b6148d08195929395929361072e565b7001000000000000000000000000000000008110156149ac575b508068010000000000000000600292101561499d575b64010000000081101561498e575b6201000081101561497f575b610100811015614970575b6010811015614961575b6004811015614953575b1015614948575b9138806148b2565b60010160ff16614940565b91810160ff1691811c614939565b600492830160ff16921c61492f565b600892830160ff16921c614925565b601092830160ff16921c61491a565b602092830160ff16921c61490e565b604092830160ff16921c614900565b60809250821c905060026148ea565b929182614a11916149cb8461478e565b604051602081019188835260f81b6040820152602181526149eb81610b7e565b5190206000526201000660205260ff614a0a8360406000205493613ea3565b1690613eb5565b919091614a215761340e936145d0565b50505050600090600190565b9115614a3c5761111191614a45565b61111191614a7c565b9060ff91826001809301165b838116614a635750505050627fffff90565b614a6d81836147fa565b156142d1575082018316614a51565b9060ff9182600019809301165b8380821610614aba57505050507fffffffffffffffffffffffffffffffffffffffffffffffffffffffffff80000090565b614ac48183614865565b156142d1575082018316614a89565b815115614b0d576001600160801b03809151169060808301511611905b81614af9575090565b6001600160801b0391506060015116151590565b6001600160801b0380915116906080830151161090614af0565b909392918460020b7fffffffffffffffffffffffffffffffffffffffffffffffffffffffffff80000081139081614bfc575b5015614bf5576137ea614bdd92614b8286614b7785614be399614d88565b865115158986614f00565b614bc5614bbc614b956020880151151590565b94614ba08851151590565b6060890196614bb688516001600160801b031690565b92614c09565b93919091612e4b565b82516001600160801b0316036001600160801b031690565b51151590565b15614beb5790565b6000190160020b90565b5050505090565b627fffff91501238614b59565b90939291614c1682613015565b90614c2e866001600160801b03938486511690613a97565b938280861691161115614c8e5715614c4c57509261320c9293614cec565b80825116620100028111614c7f575b505050614c6781613488565b9215614c7957506000905b6000929190565b90614c72565b60001901169052388080614c5b565b60646040517f08c379a000000000000000000000000000000000000000000000000000000000815260206004820152600260248201527f42440000000000000000000000000000000000000000000000000000000000006044820152fd5b9290926001600160801b03808251166f0ffff5433e2b3d8211706e6102aa94718110614d2f575b505050600091614d2281613488565b93600090156119e0575090565b600101169052388080614d13565b9062093a808201809211610ee357565b91908201809211610ee357565b63ffffffff9182169082160391908211610ee357565b91909163ffffffff80809416911601918211610ee357565b90614dac614da28360005262010017602052604060002090565b5463ffffffff1690565b63ffffffff91828216614e09575b505090614dd9610a249242169160005262010017602052604060002090565b9063ffffffff167fffffffffffffffffffffffffffffffffffffffffffffffffffffffff00000000825416179055565b60400151909290614e22906001600160801b03166119c9565b925b8281169042821015614eef57908184614ed893614e51614e4862093a8086046130e6565b63ffffffff1690565b93614e72614e48614e6d614e6484614d3d565b62093a80900490565b6130e6565b90428483161015614edd5750614e8b91614e4891614d5a565b1691614ed1614ec9614e9d89866130fe565b92614eb48860005262010016602052604060002090565b9063ffffffff16600052602052604060002090565b918254614d4d565b9055614d70565b614e24565b9050614eea915042613bbc565b614e8b565b50909250614dd99050610a24614dba565b9192608083019067ffffffffffffffff8251169360405160208101908382528560e81b604082015260238152614f3581610b7e565b51902060005262010002602052614fda614fcd6040806000208054986d03fffffffffffffffffffffff800808b60561c16600f0b908b600a1b16600f0b03600f0b8b60001461509357995b60c01c90818103615036575b505089156150185754614fb39060601c6bffffffffffffffffffffffff165b600116151590565b935b0196614fc888516001600160801b031690565b6150a2565b6001600160801b03168652565b614fe5575050505050565b6125b2946137ea93615002615008945167ffffffffffffffff1690565b92615121565b82516001600160801b03166150a2565b54615030906bffffffffffffffffffffffff16614fab565b93614fb5565b61508c91615043916150ee565b825477ffffffffffffffffffffffffffffffffffffffffffffffff1660c09190911b7fffffffffffffffff00000000000000000000000000000000000000000000000016178255565b3880614f8c565b61509c90610eb3565b99614f80565b91906000908181600f0b126000146150d4576001600160801b0380918303811685031693168310156150d15750565b80fd5b6001600160801b0380918116850116931683106150d15750565b67ffffffffffffffff9182169082160391908211610ee357565b908160209103126100a5575180600f0b81036100a55790565b92919273ffffffffffffffffffffffffffffffffffffffff610dad54169182156100a55767ffffffffffffffff6000959486956040519360208501957f3c05c621000000000000000000000000000000000000000000000000000000008752602486015260020b604485015215156064840152166084820152608481526151a781610b9a565b51915af46151b36122c7565b90156100a557806020806111119351830101910161510856fea26469706673582212200f4cc39df0d36b016103f793f3fac6b18bd145bcd0e11f9c7c8cd07a61cd8f3e64736f6c634300081300336080806040523461002b5762010011805460ff60e01b1916600160e71b17905561060990816100318239f35b600080fdfe60806040908082526004908136101561001757600080fd5b6000803560e01c918263ac54c0fc1461050257508163b6701980146100ba575063f96dc7881461004657600080fd5b6100b69161005336610566565b5050519182917f08c379a0000000000000000000000000000000000000000000000000000000008352820160609060208152600f60208201527f496e76616c696420636f6d6d616e64000000000000000000000000000000000060408201520190565b0390fd5b8284346104fe576100ca36610566565b60ff859392935460a01c16156104a25780601f101561047657601f83013560f81c60150361041057826060918101031261040c57813560ff81160361040c57602091828101359073ffffffffffffffffffffffffffffffffffffffff82168092036104085782013561ffff8116908181036104045781156103a8578215908115918261039e575b1561034257837f6d6175bccbf61a37eb104b2e776524b39d3c237dbc07dc62fc29c8b3e79f1b3c878751868152a26201000081101561031657600101837fffffffffffffffffffffffff00000000000000000000000000000000000000008254161790556101c2575b505050505080f35b839060448451809481937fac54c0fc000000000000000000000000000000000000000000000000000000008352308a84015260248301525afa90811561030c578591610271575b50156102165780806101ba565b6064935051917f08c379a0000000000000000000000000000000000000000000000000000000008352820152601a60248201527f50726f787920646f6573206e6f742061636365707420726f6c650000000000006044820152fd5b9050823d8411610305575b7fffffffffffffffffffffffffffffffffffffffffffffffffffffffffffffffe0601f820116820182811067ffffffffffffffff8211176102d957849183918552810103126102d5575180151581036102d55785610209565b8480fd5b6024876041887f4e487b7100000000000000000000000000000000000000000000000000000000835252fd5b503d61027c565b82513d87823e3d90fd5b6024886032897f4e487b7100000000000000000000000000000000000000000000000000000000835252fd5b606487878751917f08c379a0000000000000000000000000000000000000000000000000000000008352820152601f60248201527f50726f78792061646472657373206973206e6f74206120636f6e7472616374006044820152fd5b50833b1515610151565b606486868651917f08c379a0000000000000000000000000000000000000000000000000000000008352820152601a60248201527f43616e6e6f74206f766572777269746520626f6f7420706174680000000000006044820152fd5b8680fd5b8580fd5b8380fd5b6100b68483519182917f08c379a0000000000000000000000000000000000000000000000000000000008352820160609060208152600f60208201527f496e76616c696420636f6d6d616e64000000000000000000000000000000000060408201520190565b6024856032867f4e487b7100000000000000000000000000000000000000000000000000000000835252fd5b6064848351907f08c379a000000000000000000000000000000000000000000000000000000000825260208183015260248201527f5375646f000000000000000000000000000000000000000000000000000000006044820152fd5b8280fd5b83853461040c577ffffffffffffffffffffffffffffffffffffffffffffffffffffffffffffffffc3601126104fe573573ffffffffffffffffffffffffffffffffffffffff8116036105625760243561ffff811603610562576020918152f35b5080fd5b9060207ffffffffffffffffffffffffffffffffffffffffffffffffffffffffffffffffc8301126105ce5760043567ffffffffffffffff928382116105ce57806023830112156105ce5781600401359384116105ce57602484830101116105ce576024019190565b600080fdfea2646970667358221220880cfbda74596111114781f6652adb0a046e2af75958d2a84b1960b9f4bdc11764736f6c63430008130033",
  "linkReferences": {},
  "deployedLinkReferences": {}
}